:020000041000EA
:1000000000B5324B212058609868022188439860DF
:10001000D860186158612E4B002199600221596106
:100020000121F02299502B49196001219960352056
:1000300000F044F80222904214D00621196600F024
:1000400034F8196E01211966002018661A6600F04E
:100050002CF8196E196E196E052000F02FF8012189
:100060000842F9D1002199601B49196000215960AB
:100070001A491B48016001219960EB211966A021F2
:10008000196600F012F800219960164914480160C1
:100090000121996001BC002800D000471248134993
:1000A000086003C880F30888084703B5996A0420EC
:1000B0000142FBD001200142F8D103BD02B5186610
:1000C0001866FFF7F2FF186E186E02BD00000240BE
:1000D000000000180000070000035F00212200005C
:1000E000F4000018222000A00001001008ED00E03C
:1000F00000000000000000000000000074B24E7A12
:1001000000200420F7010010C3010010C5010010F9
:10011000C1010010C1010010C1010010C101001097
:10012000C1010010C1010010C1010010C701001081
:10013000C1010010C1010010C9010010CB01001065
:10014000CD010010CD010010CD010010CD01001037
:10015000CD010010CD010010CD010010CD01001027
:10016000CD010010CD010010CD010010CD01001017
:10017000CD010010CD010010CD010010CD01001007
:10018000CD010010CD010010CD010010CD010010F7
:10019000CD010010CD010010CD010010CD010010E7
:1001A000CD010010CD010010CD010010CD010010D7
:1001B000CD010010CD010010CD010010CD010010C7
:1001C00000BE00BE00BE00BE00BE00BEEFF3058054
:1001D000103800BEF2EB887170BD001094BD0010A5
:1001E0003402001090A31AE700201F49086006C8D7
:1001F00081F3088810471D48006800282FD10DA4FE
:100200000ECC002902D000F012F8F9E71849194A7B
:10021000002000E001C19142FCD1174988471749ED
:1002200088471749884700BEFDE701C901C29A42C5
:10023000FBD3704794BD0010C00000204C13002079
:1002400020D00010000004200000042020D0001066
:10025000001004200010042000000000704709482E
:1002600000F080FA0047000008ED00E0000000D038
:1002700050130020AC1A0020D125001005030010F7
:100280008D2500105756000006005250ABB3605346
:10029000E8A9001006005250861C0302F8A90010BD
:1002A000060052505422A29D04AA0010050052508C
:1002B000DE65F46820D00010F8B5C04610B5064CD5
:1002C0002378002B07D1054B002B02D0044800E017
:1002D00000BF0123237010BD701500200000000036
:1002E00050970010044B10B5002B03D0034904486D
:1002F00000E000BF10BDC0460000000074150020E3
:100300005097001080B5154FBD4404F0C3F804F0B9
:10031000C1FB1121102000F0F3F808F03BF8002891
:1003200003D10F4804F07AF8FEE701220D490E4888
:10033000684406F0BFFD011E03D00C4804F09EF88F
:10034000FEE701A800F016F8020001A9012000F064
:1003500023F90020064B9D4480BDC04690FFFEFF60
:10036000509700107897001008FE00007C9700104E
:100370007000010070B596B00500002407E020026F
:10038000001B2818FF22002103F0B0FE0134FE2CD0
:10039000F5DD1D49684606F0BDFD1C4B18700028B0
:1003A00001D1002608E001267642300016B070BD6B
:1003B0001749184804F062F81749684606F013FE1A
:1003C000124B18700028F0D1134B9B7E002BECD001
:1003D000114B1B7BDB06EBD42E210D4809F0A4F852
:1003E00004000E4908F0F8FF0028E5D1002CE3D006
:1003F000FD2EDADC741C3002801B2818FF22044911
:1004000009F05CF82600D7E7A8970010A71A00208B
:100410006A140020AC97001050140020BC97001004
:1004200000B585B00F226A44107000230093013399
:100430002721024804F022FB05B000BDD8070020A8
:1004400010B5040004202043C0B2FFF7E9FF0423E5
:1004500020009843FFF7E4FF10BD70B5002A1AD0C2
:100460000F2305009D436DB249B20D4308231D4380
:10047000EDB204010C4364B21C43E4B22800FFF760
:10048000CFFF2800FFF7DCFF2000FFF7C9FF2000A7
:10049000FFF7D6FF70BD0F2305009D436DB24CB230
:1004A0002543EDB200010443E4B2E7E710B50122B1
:1004B00000210120FFF7D1FF10BD000000B583B07F
:1004C000064B019301AB185C4018C0B28038C0B233
:1004D00001220021FFF7C1FF03B000BD004014540A
:1004E00010B501220121FFF7B8FF10BD10B50400BF
:1004F00002E00134FFF7F4FF20780028F9D110BDA5
:1005000070B505000C001E491E4804F08BFA03214B
:10051000280000F05DFA0321200000F059FA0022C3
:100520000121280000F06CFA00220121200000F0D7
:1005300067FA012200210320FFF78FFF012200212B
:100540000320FFF78AFF012200210320FFF785FF28
:10055000012200210220FFF780FF01220021062056
:10056000FFF77BFF012200212820FFF776FF012201
:1005700000210C20FFF771FFFFF798FF70BDC04608
:10058000A0860100D80700200200002000E0013012
:10059000135C2E2BFBD17047F0B5C64600B586B074
:1005A00088461600002407E0E0B20021FFF786FF2E
:1005B00001A8FFF79BFF0134032C22DCB442FADAD6
:1005C00001AF14220021380003F090FD25022D1BFD
:1005D000454414222900380008F070FF2800FFF776
:1005E000D3FF00233B54002CDED12800FFF7CCFFC3
:1005F0000130C1B2E0B2FFF761FF3C20FFF770FFAE
:10060000D2E706B080BCB846F0BD0000034B1B68C3
:1006100002201840431E9841C0B2704700C00640F7
:1006200010B5024800F004F810BDC046781800204C
:1006300070B588B0040004AD00260496092200219C
:1006400005A803F053FD00960922002101A803F03C
:100650004DFD4B232B700D226946280009F038F818
:10066000002304E05A1D69468A5CE2540133072BDB
:10067000F8DD08B070BD0000EFF3108072B6034BD8
:100680001B68002BFBD0BFF35F8F70472C0100D09D
:10069000BFF35F8F024B00221A6080F3108870470F
:1006A0002C0100D0F8B506000C001500FFF7E4FFA0
:1006B000E308F718F15C07222240012393400B4224
:1006C00005D1DBB20B433B70FFF7E2FFF8BD210021
:1006D000280001F0F9FFF0B583B006000191140085
:1006E0001F00FFF7C9FF00E00134BC420CD8E3084B
:1006F000F518F35C0721214001228A401A42F3D108
:10070000D2B21A432A7001E001246442FFF7C0FF0D
:10071000002C02DB200003B0F0BD019B002BF9D0C0
:10072000089801F0D1FF0000002307E0054A9A185D
:100730009200BFF35F8F0021116001331F2BF5D9A9
:100740007047C04640000034054A1078431CDBB2B5
:100750001370172B02D9130010221A707047C0466D
:100760002807002010B5010018231B8814221088C8
:10077000984710BD10B5010018231B881622108859
:10078000984710BDF0B5C64600B507000E0000251D
:100790000123984600E00135B5420AD2AC003C196D
:1007A0002068FFF7DFFF20600028F4D1002398467F
:1007B000F1E7404680BCB846F0BD0000F8B5DE4623
:1007C00057464E464546E0B505000F0092460A9A48
:1007D000934250D31A0E91461E020A9A002330000B
:1007E000494603F0A9F880466C006419A400304B18
:1007F0009C4664446368834200D260602B1FDBB276
:100800009B46012B3DD9C0239B012343802212012B
:100810001A60AB00274A9958002907D0506903F0A5
:100820004DF8431C5800C0180338FDD253465A01F6
:1008300023685A40E0231A4080235B0123431A6057
:100840005A46012A28D980239B0123438022120182
:100850001A6043466360424600233000494603F075
:100860006BF8AD00134B58510120F0BCBB46B246AB
:10087000A946A046F8BD104B104A3321104801F09C
:1008800089FE012FBFD1C0239B01234303221A609D
:10089000A368DB07FCD5C9E72168794003220A4039
:1008A0001A60A2680123BB401342FAD0CBE7C046CE
:1008B00000800040F01700204C990010C0990010F3
:1008C0006099001030B583B00C2001F047FDFFF7B0
:1008D0009DFE00280DD0002304E099002D4A2E48EB
:1008E00088500133092BF8D92A4B2C4A5A6203B09D
:1008F00030BD2B4B00229A6701F038FD294B0122B5
:100900001A60274B5B6C012BFBD1274B03221A602B
:10091000234B9B6B012BFBD1013300930433234A00
:100920000121234801F08AFC05230093214A01217B
:10093000214801F083FC214B009300220221042076
:10094000FFF73CFF1E4D00952B00002201210520E2
:10095000FFF734FF104C00942300002200210720F1
:10096000FFF72CFF00942300002200210820FFF74E
:1009700025FF0A4B00932300002200210920FFF7E6
:100980001DFF00952B00002200210620FFF716FF17
:10099000ADE7C046F0170020006CDC021BB700007A
:1009A000008000403CB0004030B00040002F68594B
:1009B00000800240008C864700C00240001BB70048
:1009C000405973078000014BC0587047F017002052
:1009D00010B58300084A944663441C684022624074
:1009E000C02414408022520113431C60C000034BFA
:1009F0009C466044416010BD04C00140004001407D
:100A000080000B4B9C46604400290DD00823002A2F
:100A10000CD004221343026853400C22134080225E
:100A200052011043036070470023F0E70022F1E712
:100A300004C001408000064B9C46604409010368E5
:100A400059403023194080235B01184301607047EF
:100A500004C0014010B501238340D02212069362E6
:100A600093610521FFF7B4FF10BD0000074B9B68A1
:100A7000103080001950BFF35F8FBFF35F8F044BBE
:100A80000021196082F310887047C04600ED00E035
:100A9000240100D010B5091A081F0A4B9C46614476
:100AA000094A914208D8C30706D440104005400DBA
:100AB000064B184380B210BD054B064AA3210648D9
:100AC00001F068FDFC070000FE0F000000E0FFFFE2
:100AD000D0990010409C0010009A001010B5091A1F
:100AE00004394C08090B08D14905490D064A114340
:100AF0000180064B2343438010BD054B054AAB21C3
:100B0000054801F047FDC04600F0FFFF00F8FFFF79
:100B10005C9A0010149C0010009A0010012383407E
:100B2000034A10681840431E9841C0B27047C0463F
:100B300000E100E0002904D0034B1860034B18606B
:100B40007047034B1860FBE780E200E000E100E043
:100B500080E100E010B5012383401800FFF7EAFFB1
:100B600010BD0000024B9B6810308000C0587047D9
:100B700000ED00E070B504000D00EFF3108672B6D2
:100B80000C4B1B68002BFBD0BFF35F8F2000FFF7DF
:100B9000E9FF094B984201D0A84205D13200290053
:100BA0002000FFF763FF70BD044B054A862105480E
:100BB00001F0F0FC240100D0CD0100106C9A00106F
:100BC000749C0010009A0010F0B5DE4657464E4661
:100BD0004546E0B589B0814601911500EFF3108AD2
:100BE00072B6744B1B68002BFBD0BFF35F8F724B48
:100BF0000027DF57002F40DB7C00E419A4006F487A
:100C000024180622A2566C4B1A706D4B9A684B46FC
:100C100010339B00D35898461E001B1A2F2B38D92F
:100C2000684B98452FD105AE674B33807B009B46C0
:100C3000D8198000614B9846404402306349FFF761
:100C400029FF7080624BB380FF23B371F571019B64
:100C500007935F44BF0047440ECE0EC701231C43D9
:100C6000A046524641464846FFF700FF09B0F0BC97
:100C7000BB46B246A946A046F0BD564B564AD721C0
:100C8000564801F087FC564B534ADE21534801F089
:100C900081FCC04340440C2102F010FE002912D117
:100CA00001239E43B34633000026DA79AA4211D9C4
:100CB0000621595600290CDB4A00521892001E00EA
:100CC0003E4B9B18F1E7474B434AEA21434801F06A
:100CD00061FC1E00002E3AD005AB434A1A80813ACF
:100CE0005A800623F3560293002B17DA3F4805ABD0
:100CF0009B469880029A9A71DD71019A0792301D85
:100D00002100FFF7C7FEB080B7717B00DB199B00A5
:100D10002A4FFF185B4607CB07C7A2E77800C01928
:100D20008000264BC0180430321DB388D90A1C2914
:100D300007D15B055915023149005118FFF7AAFE8A
:100D4000D5E72B4B2B4AB121244801F023FC05AEFB
:100D50001D4B33807B000293D8198000174A9046C0
:100D6000020042440392901C1849FFF793FE7080E2
:100D7000039A101D5946FFF78DFEB0801E4B5A4650
:100D80004146521A524153431B0DB371F571019AFA
:100D90000792029B9C466744BF0047440ECE0EC795
:100DA000114B5A461380813B538001231C43A046BC
:100DB00057E7C046240100D0AA1A00202C070020C3
:100DC00000ED00E0CD01001000A1FFFF5C07002056
:100DD00001BDFFFFA49A00105C9C0010009A001057
:100DE000CC9A0010F49A00100148000001BD0000E8
:100DF000689B00104C9C0010AAAA0000F0B5CE46DB
:100E0000474680B583B006000D00EFF3108872B638
:100E1000564B1B68002BFBD0BFF35F8F544B9A6877
:100E200034001034A300D758524B9F4207D0AF4232
:100E300000D198E00197504BFB1A2F2B09D942465D
:100E400039003000FFF712FE03B0C0BCB946B0460F
:100E5000F0BD3000FFF762FE814600213000FFF751
:100E600079FEBFF35F8FEFF30581002901D08C423B
:100E700011D10123019C9C430022A368AB4212D0F4
:100E80000622A256002A0DDB53009B189B0022006D
:100E9000394CE418F1E73621384B394AFF313948EB
:100EA00001F078FB2200AB4256D106256557002D94
:100EB00038DB6B005B199A002F4B9B189A68A26075
:100EC000DA79E27106229A56A2719B795BB2002B05
:100ED0000FDA2D48A0806B005B199B00264AD318BF
:100EE0002A4A11789971157049463000FFF732FE91
:100EF000A5E7201D6B005B199B001F4A9B181A1D5C
:100F00009B88D90A1C2907D15B055B150233590060
:100F10005118FFF7BFFDDDE71D4B1E4AB1211948EF
:100F200001F038FB002912D1002A0ED0FF23937163
:100F3000194B9380154A1378A371184B0E49641A04
:100F4000644163431B0D1370CEE70A4FF2E7201D87
:100F50001349FFF7C3FDC7E76A21124B084AFF3167
:100F6000084801F017FB034F69E7C046240100D091
:100F700000ED00E0CD0100102C070020809B001048
:100F80002C9C0010009A001001BD0000AA1A00203D
:100F9000689B00104C9C001001BDFFFFAAAA000036
:100FA00066070020B49B001070B5012101432E4B51
:100FB000CB1A2F2B28D8EFF30583002B2BD0EFF380
:100FC000108C72B6294A1268002AFBD0BFF35F8FDB
:100FD000274A0400244D641B64416243120D54B23D
:100FE000244A92689B00D2588A421BD00022032ACE
:100FF00032D853009B189B001B49CB189B795BB2DE
:10100000A3421FD00132F2E7C7211B4B1B4A490004
:101010001B4801F0BFFA92211A4B184AFF311848B9
:1010200001F0B8FA134A92681749D150174B1A7851
:1010300082711C70BFF35F8F0C4B00221A608CF31F
:10104000108870BD0D005300991889006918FF269B
:101050008E710F4A8A80E9E7D1210E4B074A490079
:10106000074801F097FAC0462C070020240100D061
:10107000AAAA000000ED00E0BC9B0010F89B001045
:10108000009A0010E49B0010CD010010AA1A002065
:1010900001BDFFFFF09B00100022044B02E0044959
:1010A00002C30132072AFAD97047C04600E400E0C3
:1010B0008080808070B504000E001500FFF744FBAF
:1010C0000100200000F006F8A680E580BFF35F8FE6
:1010D00070BD0000024B9C4661448900016070476E
:1010E0004000003410B50400FFF72EFB0100200083
:1010F000FFF7F0FFFF232371BFF35F8F10BD10B523
:101100000400FFF721FB01002000FFF7E3FFFF23AE
:10111000237100236371BFF35F8F10BD70B50500AD
:101120000C00080000F04AFE0949200000F08AFD8A
:10113000FFF70AFB074B9C466044800068602C75F3
:10114000D0231B061B786B75A400034BE55070BDC4
:101150006114001040000034681800200A4B1A681F
:10116000EFF3108172B61368002BFCD0BFF35F8FD2
:10117000054B1B68BFF35F8F00221A6081F3108854
:1011800040BF002000217047841A002010B50029BC
:1011900022D003681B7B99421ED8174B9C466144A2
:1011A000090183689C4661440C684968002A19D08B
:1011B00003681B7B9A4215D883680F4884466244B3
:1011C00012019A1810685368020001208B4201D85E
:1011D0000ED00020C0B210BD084B094A3C2109487E
:1011E00001F0D8F9054B064A3C21064801F0D2F936
:1011F000A242EFD8EDE7C046FFFFFF0FDC9E0010D4
:101200000CA10010889E001010B500291ED0037B91
:1012100099421BD84B005B18033B0468A446634407
:10122000002919D0002A1DD0914221D0002A25D0B2
:10123000047BA24222D8046850008018033820188A
:101240008170197800291FD11A7010BD104B114AF6
:101250006821114801F09EF9104B114A6F310E4878
:1012600001F098F90F4B0E4A70210B4801F092F9EA
:101270000D4B0B4A7121084801F08CF9044B054ACB
:101280006821054801F086F941701A70DDE7C04613
:10129000009F001078A100101C9F0010849F001078
:1012A00054A10010909F00109C9F001070B5060084
:1012B0000D001400002914D0002A14D0806873682F
:1012C0009847002806D0220029003000FFF79CFF35
:1012D000280007E02A0021003000FFF795FF2000DA
:1012E00000E0100070BD0800FCE70000F0B583B01E
:1012F0000500009201930AAB1C780BAB1F78002C01
:1013000026D003685A7B944207D10123002B19D1C0
:10131000002C3BD1200003B0F0BD002C0CD01A7B78
:10132000944209D81A6863001B19033BD3189B78B1
:10133000002BEBD00123E9E73E4B3F4A68213F48B1
:1013400001F028F93E4B3F4A67213F4801F022F95E
:1013500003689C7B002CDBD012D01A7B94420FD800
:1013600062001219033A19688C46624451789973E5
:10137000002900D1D9730023937053701370C7E70D
:101380002C4B2D4A68212D4801F004F9002C3AD04D
:101390002B681B7B9C4236D82C4BE3181B01AA6898
:1013A00094466344009A1A60019A5A60089A9A60B7
:1013B000099ADA602E68002C2BD030D0337B9C4207
:1013C0002DD863001B19033B326894466344002206
:1013D0009A705A701A70717B22003000FFF766FF16
:1013E0007073844200D095E7287D009A019B00F03D
:1013F00071FC061E01D0002F17D00C9B002B00D1D2
:1014000088E71E7086E7124B124A3C210E4801F015
:10141000C1F8114B114AA521084801F0BBF8054B52
:10142000054A6821054801F0B5F82868210000F058
:1014300089FEE2E7009F001078A100101C9F0010B9
:10144000B49F001084A10010889E0010FFFFFF0FC2
:10145000DC9E00100CA10010849E001068A10010FA
:10146000F0B5DE4657464E464546E0B58BB009908E
:10147000002308938200B54BD658370052E0B44B96
:10148000B44A3F21B44801F085F8B44BB44A3C213A
:10149000B44801F07FF8002901D1002869D100216A
:1014A000404600F045FEA04219D12A686B680692BA
:1014B0000793AB689846EB689A464346002B14D0D6
:1014C000002C18D03B681B7B9C4214D8631EFA6822
:1014D000D35C08931B0218433861002015E0A24B2F
:1014E000A24A8E219F4801F055F8A14B9F4A9221B4
:1014F0009C4801F04FF8994B9E4A4121994801F0D0
:1015000049F800239A46984600207B68BFF35F8F16
:1015100000221A6086F310884346002B32D100283F
:1015200000D10CE100F04AFB02000B1EA7DB0020FB
:101530000021069007917868EFF3108672B6016873
:101540000029FCD0BFF35F8F396888464C7B002CA4
:10155000D7D09AD0097B8C4297D8874965182D013E
:10156000B9688C46654428686968801A99410029E1
:1015700091DD2A686B68099800F0ACFB00239A465D
:101580009846C2E7089B1B02234399465146180020
:10159000C04705000E007A68EFF3108B72B613682F
:1015A00059424B41D9B2002BF9D1BFF35F8F002EC6
:1015B0001EDB002E46DD3B69002B47D04B456DD12D
:1015C00000F0FCFA02000B1E6EDB52197341002B77
:1015D00070DB002B72DB0021049101310391029436
:1015E00051460191414600913800FFF77FFE4CE0E3
:1015F0003B69002BDDD04B4514D1069A079B521B4B
:10160000B341002B14DB002B16DB002104910131C8
:101610000391029451460191414600913800FFF731
:1016200065FE32E0554B514AA1214E4800F0B2FF11
:1016300001225242524BE6E7454B464A3F2146487B
:1016400000F0A8FF002E01D1002DB4D13B68002C82
:1016500050D05A7B944237D1012100294AD1DA7BFC
:10166000002A4DD19A7B002A03D1DA7B002A5AD175
:101670009C73DC73002C5CD03B681B7B9C4258D86D
:10168000FA68013C135D0133135500233B617A680E
:10169000BFF35F8F13608BF3108843E7374B334AF8
:1016A000A421304800F076FF294B2A4A3F212A48DE
:1016B00000F070FF01225242314B8AE7244B254A49
:1016C0003F21254800F066FF002C0DD01A7B944284
:1016D0000AD862001219033A186884466244927864
:1016E000002ABAD00121B8E7264B274A68212748AB
:1016F00000F050FF264B274AF621244800F04AFF0D
:10170000002A0AD0197B8A4207D851008A18033A66
:1017100019688C4662445470A4E71A4B1A4A68212F
:101720001A4800F037FF1C4B1A4AFB21174800F0FB
:1017300031FF0A4B0F4A41210A4800F02BFF0BB042
:10174000F0BCBB46B246A946A046F0BD68180020D2
:10175000909C0010D8A00010AC9C0010DC9E0010E3
:101760000CA10010889E0010DC9F0010F0A000105B
:10177000F49F001030A10010FFFFFF0F00A0001029
:10178000FFFFFF7F009F001078A100101C9F00103A
:101790003CA0001044A1001060A0001010B50C4B3C
:1017A0005B68002B04D00A210A48FFF793FC10BDA8
:1017B000074C2300084A1021206800F0C9FB0320D1
:1017C00000F0F0F903212000FFF7A8FCEBE7C0468A
:1017D00074070020841A00208D11001010B5064BEC
:1017E0005B68002B01D0044810BD044B044A5E2105
:1017F000044800F0CFFEC0467407002074A000101B
:1018000018A10010889E0010F0B5DE4657464E46DF
:101810004546E0B58BB0804616001F00149B9A46E3
:10182000159B994616AB1B789B461F2302AA94462C
:10183000634400221A702BE0002809D04246126847
:10184000127B904204D8421E4146C9688A5C41E03E
:10185000404B414A4121414800F09CFE07984CE032
:10186000361BAF41002F07DB002F11DA3C4B3D4AFE
:101870003F213D4800F08EFE012676423B4FF3E7C4
:10188000374B384A3F21384800F084FE002F4FDBA9
:1018900043465A68EFF3108472B6136859424B41BD
:1018A000D9B20791002BF8D1BFF35F8F1F3302AA83
:1018B0009446634404930023039302934B4601939D
:1018C0005346009332003B004046FFF70FFD031ED6
:1018D000B2D1020041464968BFF35F8F00250D6019
:1018E00084F31088002B29D01F2302A98C4663445F
:1018F0001B78002BB2D112021043002B20D05B4684
:10190000002B1DD04946D04704000D0003000B43B7
:101910001DD00029A4DB00F051F906000F1EAFDB3B
:1019200036196F41002FB1DA012676420F4FADE72D
:101930000B4B0C4A3F210C4800F02CFE012040428A
:101940000BB0F0BCBB46B246A946A046F0BD079816
:10195000F6E7C046DC9E001030A10010889E001003
:10196000909C0010D8A00010AC9C0010FFFFFF7FDF
:10197000F8B50400002900D162E04268EFF3108559
:1019800072B6136858424341D8B2002BF9D1BFF365
:101990005F8FCBB22268567BB3421BD10120002857
:1019A00048D0206988422BD0090AC9B2002B2ED01A
:1019B0002068007B83422AD8581EE668305C884243
:1019C0002BD000206368BFF35F8F00221A6085F37D
:1019D0001088F8BD002B0DD0167BB3420AD85E00EC
:1019E000F618033E1768BC466644B678002ED6D07B
:1019F0000120D4E7134B144A6821144800F0CAFDB3
:101A00002C21134B134AFF31134800F0C3FD134B35
:101A1000134A4121104800F0BDFD1900100000F0EC
:101A200091FB0028CED199210E4B0A4A49000A4861
:101A300000F0B0FD23698B42C4D100232361C1E7CC
:101A40000020C6E7009F001078A100101C9F001026
:101A500098A00010C0A00010889E0010DC9E00100E
:101A600030A10010BCA0001070B584B005000C00BF
:101A7000EFF30583002B1ED1FFF7B0FE0023029386
:101A80000193224B00932A002300FFF7BDFE061EA0
:101A900023DD20BFFFF7A2FE3100FFF769FF1C4BDB
:101AA0005B6A9C422DD81A4A926AAA422CD29C4266
:101AB00025D0012026E0164B5B6A994209D8144ACA
:101AC000926A824207D2994201D001201AE0002096
:101AD00018E0002016E0012014E00D4B5B6A9C42E8
:101AE00009D80B4A926AAA4207D29C4201D001202F
:101AF00008E0002006E0002004E0012002E00020D1
:101B000000E0002004B070BD0120FBE75D11001073
:101B10000040054070B5EFF305801038EFF3108CEE
:101B200072B61A4B1B68002BFBD0BFF35F8F0122EC
:101B30001300834016494B6316490B601649097818
:101B40000C00C440224214D0114A546A8200134D42
:101B50005259944206D38200114C125999430E4BAC
:101B6000197007E00A4A031D9B00995899500022FA
:101B700000E00022BFF35F8F044B002119608CF35B
:101B80001088002A00D0904770BDC046280100D0C0
:101B9000004005403C700540AB1A0020881A002028
:101BA000D816002010B50100024A0348FEF77AFD5E
:101BB00010BDC046A8A10010A61A0020044B5B6A05
:101BC000034A906A1900536A9942F9D17047C04696
:101BD00000400540084B5B6A01E0074B5B6A8B42A3
:101BE000FBD301E0044B5B6A8B4203D1024B9B6A3F
:101BF0008342F7D37047C0460040054070B50400EB
:101C00000D00FFF7DBFF02000B0020002900801809
:101C100059418B4202D804D1824202D9012040426C
:101C2000C117002902DBFFF7D5FF70BD024B034A45
:101C30003F21034800F0AEFC909C00106CA2001005
:101C4000AC9C001070B504000D00EFF3108672B666
:101C50001B4B1B68002BFBD0BFF35F8F002D1CD0EC
:101C60002000FEF77FFF174B83420BD019002000A6
:101C7000FEF780FF01212000FEF76CFF0123A34047
:101C8000114A1360A400114BE550BFF35F8F0C4B5A
:101C900000221A6086F3108870BDA2000B4B002151
:101CA000D1500122A2400A490B7893430B70054999
:101CB0002000FFF7A3F800212000FEF74BFFE4E728
:101CC000280100D0151B001038600540D8160020F0
:101CD000AB1A0020F0B5DE4600B584B00400150054
:101CE00001921E000293FFF769FF03958E4202D80E
:101CF0004ED185424CD9EFF3108B72B6274B1B683F
:101D0000002BFBD0BFF35F8F254A17780125A54034
:101D1000EBB23B431370234B5D63221D920001998C
:101D2000D150A2002049029850501B6A2B4212D178
:101D30001C4B1B6C2B4208D00020BFF35F8F174B4E
:101D400000221A608BF3108823E0184B184AC52133
:101D5000184800F01FFCFFF731FF8E4214D802D163
:101D6000039B834210D80E4B1B78BB420ED00D4B09
:101D70001D625D631F2004400123A3400E4A1360CF
:101D8000074B1F701E38D8E70020D6E70120D4E7A4
:101D9000012004B080BCBB46F0BDC046280100D085
:101DA000AB1A002000400540881A0020CCA100108A
:101DB00050A20010F0A1001080E200E0EFF3108CC0
:101DC00072B60B4B1B68002BFBD0BFF35F8F012358
:101DD0008340084A136208490A789A430A70BFF39D
:101DE0005F8F034B00221A608CF310887047C04647
:101DF000280100D000400540AB1A002010B5002992
:101E00001ED0037B99421BD84B005B18033B046830
:101E1000A4466344002919D0002A1DD0914221D044
:101E2000002A25D0047BA24222D8046850008018E2
:101E3000033820188170197800291FD11A7010BD3D
:101E4000104B114A6821114800F0A4FB104B114AB5
:101E50006F310E4800F09EFB0F4B0E4A70210B486D
:101E600000F098FB0D4B0B4A7121084800F092FBE3
:101E7000044B054A6821054800F08CFB41701A703C
:101E8000DDE7C046009F00108CA300101C9F0010CF
:101E9000849F001078A30010909F00109C9F00105A
:101EA00070B506000D001400002914D0002A14D0CB
:101EB000806873689847002806D022002900300007
:101EC000FFF79CFF280007E02A0021003000FFF701
:101ED00095FF200000E0100070BD0800FCE7000046
:101EE00010B50023437301338373037BC373012352
:101EF000027B9A4214D9002B0CD0027B934209D862
:101F00005A00D218033A01688C4662440133DBB2AE
:101F10005370EDE70B4B0C4A68210C4800F03AFB7C
:101F2000002A09D0924207D8016853009A18033A50
:101F30008A180023537010BD024B034A68210348DE
:101F400000F028FB009F00108CA300101C9F0010C5
:101F500010B5017342608360FFF7C2FF10BD00003F
:101F600070B50400081E00D170BD002934D0237B59
:101F7000994231D84B005B18033B22689446634476
:101F80005A78002AF0D02DD0237B9A422AD85300C9
:101F90009B18033B21688C4663445D78002159708F
:101FA000002825D0237B984222D843001B18033BEE
:101FB00021688C4663440021597001002000FFF71E
:101FC0006FFF060029002000FFF7CAFF0200310062
:101FD0002000FFF765FFC7E7084B094A6821094859
:101FE00000F0D8FA054B064A6821064800F0D2FAFC
:101FF000024B034A6821034800F0CCFA009F00100E
:102000008CA300101C9F001070B505000C0016007A
:1020100000292FD034D0037B994231D84B005B1874
:10202000033B0268944663445A78002A2ED19A787A
:10203000002A31D11978FFF793FF0300002E0AD050
:10204000EA7B002A2ED1AA7B002A03D1EA7B002A50
:102050003BD1AC73EC73002B3DD1002C4FD02B7BCC
:102060009C424CD82B6861000C19033C1C190023BE
:10207000637070BD254B264A3821264800F08AFA45
:10208000254B264A6821264800F084FA254B204A31
:102090003A21204800F07EFA234B1D4A3B211D487F
:1020A00000F078FA002A0AD0297B8A4207D851002A
:1020B0008A18033A29688C4662445470C3E7164B69
:1020C000164A6821164800F065FA184B104A42215A
:1020D000104800F05FFA002B0BD02A7B934208D8FF
:1020E00043001B18033B2A689446634400229A70FD
:1020F000B3E7094B094A6821094800F04BFA064B3F
:10210000064A6821064800F045FAC04684A200103D
:1021100064A300108CA20010009F00108CA300107C
:102120001C9F0010E0A2001008A3001060A0001087
:1021300070B504000A00457B2900FFF765FF607356
:10214000280070BD70B50400002967D0437B8B4226
:102150000ED0002911D0037B99420ED84B005B189A
:10216000033B0268D0188378002B0CD1002056E086
:102170000121FFF7DDFF012051E0294B294A6821A9
:10218000294800F007FA002B20D0227B93421DD86B
:102190005A00D318033B2268D2182568EB5C8B42A7
:1021A0001AD0002B1BD0227B934218D85A00D31888
:1021B000033B2268D21853788B4216D0002BF0D103
:1021C0001A4B1B4A6B211B4800F0E4F9144B154ACB
:1021D0006821154800F0DEF94378137007E0104BD2
:1021E000104A6821104800F0D5F943785370002355
:1021F0008370437001222000FFF706FF0200617B1D
:10220000814205D02000FFF74BFE6073012006E0FD
:10221000094B074A7121074800F0BCF9002070BD46
:10222000009F00108CA300101C9F0010F09B00105A
:102230004CA300108CA200102CA30010F0B5C646D1
:1022400000B504000E0017001D00374801F036FBF2
:102250008046364BFA18364B9A4239D8010038007E
:1022600001F02CFB0200103A98235B009A4235D80B
:102270006B1E062B38D8069B013B062B34D83F0932
:10228000474537D32D04069B1A0315432368002BBB
:1022900036DB284B9C4244D080225201264B1A60E8
:1022A000264B1A60264B9B6811009943FAD1266091
:1022B000A060231DC02292011A43212313602368CA
:1022C000002BFCDAE5600823136080BCB846F0BD43
:1022D0001C4B1D4A11211D4800F05CF91C4B1A4A89
:1022E00019211A4800F056F91A4B174A1C211748B1
:1022F00000F050F9184B144A2321144800F04AF911
:1023000022683F231340B342C3D1A3681B051B0DB2
:102310008342BED1E368EE22D2021340AB42B8D171
:10232000D3E780229201B9E7001BB70080E84BD3C6
:1023300080F8A93200C0024000E0004000F00040F8
:1023400000C0004098A30010D8A40010F8A300100B
:1023500054A4001070A40010BCA4001080239B00A3
:102360000343014AD362704700800540064BAA220E
:1023700012011A602F22DA60044B054A1A60024BE0
:102380005B68002BFBDA70470040024000600240AF
:1023900000B0FA0000B583B00100044B00930B239A
:1023A00000220348FEF797F903B000BDE4A4001033
:1023B000A21A002070B5046BE30701D4200070BDA1
:1023C00002003032C0239B0113430A4A1A60456A57
:1023D000826AAD01AD18AD020620FEF7F3FA064998
:1023E00001F06CFA0100280001F068FA0021FFF703
:1023F00005FCE3E7010300004E0E000070B5040089
:102400000E001500FFF7D6FF22002C32E16A4E4085
:10241000354080235B0113431D60206370BD0000C5
:1024200070B505000C000620FEF7CCFAC0002100B4
:1024300001F044FAC60908D00E4B9E4216D87F23FD
:10244000184001303400460800E001246C62AE629E
:10245000002200212800FFF7D1FF0620FEF7B2FA84
:102460008000A101891901F029FA70BD0026024CF3
:10247000ECE7C046FEFF0000FFFF000010B5053985
:102480004901013AD2001143002B09D002220A432C
:10249000012B07D0002111436E22FFF7AFFF10BDC3
:1024A0000022F4E70421F6E7002909D00A22064BAE
:1024B0009C466044434258414000044BC25270471E
:1024C00080225200F3E7C0460080FCBF981A00202B
:1024D00070B505000C000620FEF774FA061E27D022
:1024E000164B9D4226D08022D203154B1A60154B05
:1024F0001A60154B9B6811009943FAD100212800FE
:10250000FFF7D2FF21002800FFF78AFF0600002313
:10251000012208212800FFF7B1FF2A002C32802376
:102520009B01134310221A60084B2B630323AB64F7
:10253000300070BD80221204D7E7C04600800340FF
:1025400000E0004000F0004000C000400103000037
:1025500000BEFDE703000A4A1268002A08D0084AB4
:102560001068C318074A9A4206D3054A1360704799
:10257000034A05491160F2E701204042F7E7C046EF
:102580006418002000000420AC1A002010B5FFF7EA
:10259000DFFF000010B582B00C001900002A0CD03B
:1025A000084B002A0BD0019200932300020006483A
:1025B00001F064FF0120FFF7CBFF044BF1E7034A72
:1025C000F1E7C04604A5001014A50010A497001060
:1025D00070B52B4B2B4A1A602B4B2C4A1A602C4B94
:1025E0009A682A4B9343FAD12A4C01E008CC9847C9
:1025F000294B9C42FAD3FEF765F9234B274A1A6010
:10260000234B9B68DB43DB01FAD1254B40229A67C1
:102610005A671A67DA66234C09E0234B234A87215D
:102620002348FFF7B7FF2000FEF75CFD0834214B7D
:102630009C4209D22368002BF5D0012BEDD120005C
:10264000FEF75DFD0834F2E71B4CA1681B4DC0226C
:10265000280001F051FDA560EFF30583002B00D0A9
:1026600000BEFEF761F8FEF717FDFFF797F8144C70
:1026700001E008CC9847134B9C42FAD370BDC0468A
:1026800000E00040BFCDFBFE00F00040FE7F3C00BC
:1026900000C000403013002040130020FFFFFF0166
:1026A00000F001401813002044A50010D4A500102C
:1026B00064A500103013002000ED00E000000020B1
:1026C000401300204C1300200FB400B583B008481D
:1026D00001F0A4FE049B002B07D005A9019118006E
:1026E00001F0ACFE034801F099FE0120FFF730FF36
:1026F000C4A50010C4B400109A4200D28854704798
:10270000704710B5002802D00B684968984710BD83
:102710000100002007E083001B185B00501C0860CC
:102720001078C01830380A681378303BDBB2092BB8
:10273000F1D97047F0B5DE4657464E464546E0B5FE
:1027400083B093461F000C9B9A460D9C0E9B9946A6
:102750000F9B9B0703D0B8460F00060022E00192B2
:10276000A34688464E46B9460700B44207D2551CD8
:102770004B4641462020B84701342A00F5E73D008A
:102780004F465C46019B9B46B1464646B8463700DD
:102790002E0007E0013C551C5346185D43463900A6
:1027A000B0472A00002CF5D135003E0047460F9B6C
:1027B0009B0707D4100003B0F0BCBB46B246A94645
:1027C000A046F0BDB0464E46B9462F005D46531BAD
:1027D000B342EFD2541C4B4641462020B84722005A
:1027E000F5E7F0B5CE46474680B585B094469846A5
:1027F0000C9D0D9C0EAB1B789946109A119B129E56
:10280000B7071CD4002B0CD0F7070AD54F46002F72
:1028100002D10C37374204D0013B02E030272F555C
:102820000134944201D21F2CF8D9F70707D59C42F6
:1028300005D21F2C03D830272F550134F5E7F706B2
:1028400015D5770505D4002C03D0944224D09C42A2
:1028500022D00F9A102A2BD00F9A102A30D00F9A1C
:10286000022A35D01F2C02D830222A5501341F2CC1
:1028700005D84A46002A31D02D222A550134039624
:1028800002930194009543466246FFF753FF05B05B
:10289000C0BCB946B046F0BD621E012C06D00F9FE9
:1028A000102F01D01400D4E7023CD2E71400D0E787
:1028B000B206D1D41F2CCFD878222A550134D1E7C3
:1028C000B206CCD51F2CCAD858222A550134C9E7E4
:1028D0001F2CC7D860322A550134C3E7720703D5CD
:1028E0002B222A550134CAE73207C8D520222A559F
:1028F0000134C4E7F0B5DE4657464E464546E0B5DE
:1029000093B081468A46089209931CAB10CB1B7882
:102910009B461E9D219B9846002C03D110234246C6
:102920009A4390468023DB0046461E4042461A42A8
:1029300012D0002C22D000260EE03033D9B2771C02
:102940000AAB99552900200000F0B8FFAC4216D31D
:102950001F2F14D83E0004002900200000F0AEFF15
:10296000CBB2092BE9D94246920605D54121C918B7
:10297000C9B20A39C9B2E2E76121F8E72700434644
:102980000693209B05931F9B049303955B4602933C
:1029900001970AAB0093099B089A51464846FFF7F6
:1029A00020FF13B0F0BCBB46B246A946A046F0BD1E
:1029B000F0B5DE4657464E464546E0B595B0089020
:1029C00009910A920B931E9E1F9C20AB1B789B467D
:1029D000229B9946239D269B9A463300234303D18D
:1029E000103352469A4392468023DB0057461F40DD
:1029F00052461A4219D0330023432DD0002714E049
:102A00003033DAB27B1C98460CABDA554A462B00C1
:102A10003000210000F090FFA5421FD819D0434696
:102A20001F2B1BD8474606000C004A462B003000DF
:102A3000210000F081FFD3B2092BE1D95246920662
:102A400005D54122D218D2B20A3AD2B2DAE76122CF
:102A5000F8E7B145E3D901E00023984653460693D1
:102A6000259B0593249B04934B4603935B4602935B
:102A7000434601930CAB00930B9B0A9A0999089863
:102A8000FFF7AFFE15B0F0BCBB46B246A946A04664
:102A9000F0BD0000F0B5DE4657464E464546E0B56F
:102AA00091B083468A460C9298461A9C08941B9DC6
:102AB000099522002B002000290001F0B8F9002818
:102AC00000D0E5E001225242D74B2000290001F05E
:102AD000A9F9002800D0DBE001225242D34B2000AC
:102AE000290001F089F9002800D0D1E0002200235C
:102AF000089E3000099D290001F07EF9002800D0D1
:102B0000DDE008980999069007918023DB001E9A62
:102B10001A400D921E9A1A4201D106231C93069860
:102B2000079904000D000A000600024300D1D1E01D
:102B3000080D4005400DBE4CA44660440A03120B2C
:102B4000BC4B13431F0001F085F9BB4ABB4B01F09E
:102B500014F9BB4ABB4B01F0F1F804000D00002250
:102B6000B94B3000390001F0E4F8B84AB84B01F035
:102B700004F902000B002000290001F0DFF801F049
:102B800081F9814601F066F904000D00B14AB24BAB
:102B900001F0F3F80022B14B01F0D0F801F072F926
:102BA0000600AF4AAF4B2000290001F0E6F8040010
:102BB0000D00300001F04EF9AB4AAC4B01F0DDF8EE
:102BC00002000B002000290001F0B3F804000D0002
:102BD00002000B0001F0D1F80A900B91A44BF318FE
:102BE00000261F0522002B002000290001F0A6F876
:102BF0000E900F9122002B0000208021C90501F0CA
:102C000098F804000D0000229A4B0A980B9901F0E5
:102C10009AF80022984B01F091F802000B000A98F4
:102C20000B9901F090F80022944B01F087F8020014
:102C30000B000A980B9901F086F802000B002000A7
:102C4000290001F07BF802000B000E980F9901F0AB
:102C50007AF80022774B01F071F832003B0001F066
:102C60008CF806000F0004000D00069A079B01F087
:102C7000D9F8002830D001235B429C46E144002271
:102C80007D4B3000390001F05EF804000D0023E0B8
:102C90001E9B04931D9B03931C9B0293089A099B04
:102CA0000092019343460C9A5146584600F0FCF8B6
:102CB00011B0F0BCBB46B246A946A046F0BD002309
:102CC000002406930794069680231B069C466544C1
:102CD00007951AE7002399464B466333C62B1ED847
:102CE00004261E9B1B0526D52B0023430FD0644AC8
:102CF000644B0698079901F08DF8002879D00022DE
:102D0000614B0698079901F077F8002871D01C9B59
:102D10004B4506DD4A46981A431E1C9303E00526E0
:102D2000DFE700231C938023DB001E9A1A431E92C8
:102D30000026002399461D9B9E4264D29F1B0223BE
:102D40001E9A1A400A921E9A134202D0002E00D0F8
:102D500000274B46002B07D022002B00069807992E
:102D600000F0F1FF069007910022002308980999CE
:102D700001F042F8002848D1444B1E9A13400493B6
:102D800003971C9B0293069B079C00930194434668
:102D90000C9A5146584600F087F8002E00D187E77C
:102DA0001E9B9B063DD54525441C434602005146CB
:102DB0002800D8474B46DA179B1853400522059246
:102DC000013E0496002203920A3202924A46D00F34
:102DD000019000934346220051465846FFF78AFD72
:102DE0000A9B002B00D163E702005F460C9E1D9DED
:102DF00054E01C9B002B9ED00D9B002B9BD01C9B5A
:102E0000013B1C9397E7002799E7069C079D22004A
:102E1000290080200006844661440B000692079337
:102E2000AAE76525C0E7C046FFFFEF7FFFFFEFFF82
:102E300001FCFFFF0000F03FFB799F501344D33F9C
:102E4000B3C8608B288AC63F0000F83F61436F63B8
:102E5000A787D23F71A379094F930A400000E03F52
:102E60001655B5BBB16B0240EF39FAFE422EE63F74
:102E7000FF03000000002C40000024400000184028
:102E80002D431CEBE2361A3F80842E41FFF7FFFFF3
:102E9000541C434651462020B8472200931BAB42A6
:102EA000F6D3100004E7C046F0B5DE4657464E465E
:102EB0004546E0B595B00690079193469946209F08
:102EC0001E9A1F9B1000190000F0B1FF002831D19D
:102ED00001225242BF4B1E981F9900F08DFF00281F
:102EE00037D101225242BC4B1E981F9900F09AFF25
:102EF00000283DD10022B94B1E981F9900F092FF87
:102F0000002850D10022B64B1E981F9900F074FF84
:102F1000002848D1002200231E981F9900F06CFF62
:102F2000002850D100239846229B5B0500D4B6E0D0
:102F3000002458E0229B0393219B029303230193D7
:102F4000A84B00934B465A4607990698FFF7F2FBA9
:102F50000EE1229B0393219B029304230193A24B36
:102F600000934B465A4607990698FFF7E3FBFFE0AC
:102F70000423229A1A4022990B4210D09B4B002A1C
:102F80000FD004222299039121990291019200937A
:102F90004B465A4607990698FFF7CCFBE8E0944B5E
:102FA000EDE70322EEE7229B0493219B0393029714
:102FB0001E9B1F9C009301944B465A460799069806
:102FC000FFF768FDD4E01E9A1F9B0020002100F04F
:102FD000B0FE1E901F9101239846A5E70CAB30224E
:102FE0001A55013F01341F2C01D8092FF6D81E981D
:102FF0001F9900F047FF050000F02CFF02000B00B6
:103000001E981F9900F095FEFA007A4B9B181A68DB
:103010005B680A920B9300F0B0FE0890099100F0F3
:1030200055FF060000F012FF02000B0008980999F6
:1030300000F07FFE0890099100226F4B00F0F2FE35
:1030400000282ED00136300000F000FF02000B00F7
:103050000A980B9900F0D6FE002801D00135002611
:10306000002F2CD1280000F0F5FE02000B001E9866
:103070001F9900F05EFE06000F0000225E4B00F07C
:10308000BBFE002846D100225B4B3000390000F027
:10309000C9FE00283ED1EB073CD501353AE00627B2
:1030A00046E70022544B0898099900F0A5FE002835
:1030B000D6D1002E01D0F307D2D50136D0E7AA46EB
:1030C0001F2C11D8013F0A21300000F0F7FB651CCE
:1030D00030310CAB19550A21300000F0EFFB092EFE
:1030E0000ED906002C00EBE755461F2C0CD87B1E92
:1030F000002F09D00CAA302111551F000134F4E72C
:103100002B0055461C00F0E71F2C03D80CAB2E22D9
:103110001A5501341F2C10D80A21280000F0A6FBF4
:10312000661C30310CAB19550A21280000F09EFBBB
:10313000051E01D03400EDE734000323229A13402A
:10314000012B1CD01F2C06D84346002B32D00CABD1
:103150002D221A550134229B0393219B0293019443
:103160000CAB00934B465A4607990698FFF7E2FAD4
:1031700015B0F0BCBB46B246A946A046F0BD219BA7
:10318000002B13D04346002B02D10C3313420FD037
:10319000219B013B2193190003E00CAB30221A550F
:1031A00001348C42CED21F2CF7D9CBE72199F8E716
:1031B0002199F6E7229B5B0704D50CAB2B221A550D
:1031C0000134C8E7229B1B07C5D50CAB20221A553A
:1031D0000134C0E7FFFFEFFFFFFFEF7F65CDCD417B
:1031E00065CDCDC1F0A50010F4A50010E8A5001034
:1031F000E4A50010E0A700100000E03FF0B5DE46B7
:1032000057464E464546E0B593B082468B469046BB
:103210001193002900D1EBE200275546119B187845
:10322000002800D1E7E2252809D07C1C43463A005B
:103230005946A847119B013311932700EEE701334C
:1032400011930024119A11780B00203BD8B210285A
:1032500003D88300D048C3589F460B00303BDBB2F5
:10326000092B2CD92A292FD000230A93119B1A78D5
:103270002E2A39D000239A46119A1378683BD9B286
:10328000122976D88B00C549CB589F4601231C4391
:1032900001321192D6E702231C4301321192D1E789
:1032A00004231C4301321192CCE708231C43013252
:1032B0001192C7E710231C4301321192C2E711A8F3
:1032C000FFF726FA0A90D1E71C9B1A1D1C9218687A
:1032D000002804DB0A90119B01331193C6E70223F7
:1032E0001C4343420A93F6E78022D20014435A1C3F
:1032F00011925A781300303BDBB2092B04D92A2AE9
:1033000007D000239A46B7E711A8FFF701FA8246D3
:10331000B2E71C9B1A1D1C921868002804DB824629
:10332000119B01331193A7E70020F8E780235B008E
:103330002343511C119152786C2A01D01C0018E0D3
:10334000C0239B001C430131119112E080232343D1
:10335000511C11915278682A01D01C0009E0C02349
:103360001C430131119104E080235B001C430132B6
:103370001192119B18780300253BDAB2532A00D929
:103380002CE29300864AD3589F4680239B001C431F
:1033900001321192EDE780235B001C430132119250
:1033A000E7E7782809D0582838D06F2838D0622825
:1033B00038D010239C430A2600E01026582833D02A
:1033C000692803D0642801D00C229443630501D5F9
:1033D0000122944369282AD0642828D0A30500D567
:1033E0009FE0E30500D5B8E0630600D4CAE01C9A6C
:1033F000111D1C911168FF220A4005940A9B049339
:1034000053460393029600230193009243463A00E9
:1034100059462800FFF76EFA070027E01026CDE78F
:103420000826CBE70226C9E720221443C8E7A305F4
:1034300020D4E30550D4630666D51C9A111D1C9157
:103440001168FF220A40D317D118594005940A9BEE
:103450000493534603930296D20F01920091434680
:103460003A0059462800FFF745FA0700119B01333F
:103470001193D3E61C9BDA1D07218A431100083102
:103480001C91116853689C46DB170C930D930C9AA2
:103490000D9B100048400E90624653400F930E98CB
:1034A0000F990C9A0D9B801A99410E900F910894D8
:1034B0000A9B07935346069304960023059363469D
:1034C000DA0F02920090019143463A0059462800D3
:1034D000FFF76EFA0700C9E71C9A111D1C911268CC
:1034E000D317D118594005940A9B0493534603936C
:1034F0000296D20F0192009143463A0059462800A5
:10350000FFF7F8F90700B1E7230605D51C9A111D4E
:103510001C910023D25E96E71C9A111D1C91126823
:1035200091E71C9BDA1D07218A43110008311C9189
:1035300008940A9B07935346069304960023059329
:103540000293136854680093019443463A00594625
:103550002800FFF72DFA070088E71C9A111D1C911F
:1035600005940A9B04935346039302960023019308
:103570001368009343463A0059462800FFF7BAF90A
:10358000070073E723060DD51C9A111D1C911268C4
:103590001204120C31E7C046FCA5001040A6001032
:1035A0008CA600101C9A111D1C91126825E7462854
:1035B0001AD01C9B0733072293431A0008321C922F
:1035C00004940A9A0392524602925C681B68009324
:1035D000019443463A0059462800FFF765FC07006E
:1035E000119B0133119319E620231C43E1E767285F
:1035F00001D0472802D180231B011C43452801D05C
:10360000472801D120231C431C9B073307229343E7
:103610001A0008321C9204940A9A039252460292AB
:103620005C681B680093019443463A0059462800A1
:10363000FFF730FA0700119B01331193EEE50223E7
:103640001A002240924623421FD001241C9B1A1DBF
:103650001C927A1C9146187843463A005946A8476E
:103660005346002B16D1119B013311934F46D5E5DC
:10367000561C434659462020B847230032005C1CA4
:103680009D42F5D83D001700E0E701233A002F00E6
:103690000A9DF4E74A46A9460A9D06E0571C4346A0
:1036A00059462020C84734003A00661CA542F5D888
:1036B0004D469146D7E71C9B1A1D1C921B689946E4
:1036C0005346002B00D1013B4E4601E0013613006A
:1036D0003278002A02D05A1E002BF7D14B46F21A3C
:1036E00010928023DB0026001E401C4203D052456E
:1036F00001D95346109302231A0022400B92234211
:1037000005D03A0037004C46A946554620E03A001D
:10371000109B5F46B3462E0006E0551C4346390019
:103720002020B04723002A005C1C0A999942F4D853
:1037300035005E46BB46109437004C46A9465546B8
:1037400006E01D000134561C43465946C847320066
:103750002078002804D0002FF4D06B1E002DF0D16B
:1037600017004D460B9B002B03D1119B0133119386
:1037700054E50A9F109B06E0561C434659462020FC
:10378000A847230032005C1C9F42F5D81700ECE7E5
:1037900021231C431C9B1A1D1C921B68009305943B
:1037A00008230493534603931023029300230193A9
:1037B00043463A0059462800FFF79CF80700119B42
:1037C000013311932AE57C1C43463A0059462520D3
:1037D000A847119B0133119327001FE57C1C43462A
:1037E0003A005946A847119B01331193270015E56C
:1037F0000A4B9A4610E5AA46474502D343465A1E4D
:1038000000E03A00434659460020D047380013B044
:10381000F0BCBB46B246A946A046F0BD0127001049
:1038200000B583B0009313000A0001000248FFF7BF
:10383000E5FC03B000BDC046F926001000B585B018
:10384000029003910121009313004A4202A9024809
:10385000FFF7D4FC05B000BD032700100148042188
:10386000014B1847A007002085070010124A936FEC
:103870009B0815D29066D166002905D0FFE7FFE7C7
:10388000FFE7516F106F704704B580210906C2171A
:103890005140002800D0C84305F032FF002104BD8C
:1038A000F0B5146E556E576F166FFFF7E3FF146691
:1038B000556657671667F0BD000000D0114A936F38
:1038C0009B0813D210665166002905D0FFE7FFE779
:1038D000FFE7516F106F704704B5002801D000203A
:1038E000C04305F00DFF002104BDC046F0B5146EC5
:1038F000556E576F166FFFF7E5FF146655665767ED
:103900001667F0BD000000D094464A4A926F9208B4
:10391000624601D228E0C046F0B5464E346E756E60
:10392000776F366F00F020F89446424A1466556669
:10393000576716676246F0BD94463E4A926F9208FA
:10394000624601D254E0C046F0B53A4E346E756E10
:10395000776F366F00F04CF89446364A1466556619
:10396000576716676246F0BD002B24DB11D0002993
:103970003EDA00B5C943404200D1013100F038F8C9
:10398000C943404200D10131DB43524200D10133EF
:1039900000BD002AEBD1002801D1002905D000206C
:1039A000C90FC90701D1C043410800B505F0A0FE09
:1039B0000022002300BD00B500290ADBDB43524290
:1039C00000D1013300F014F8C943404200D1013165
:1039D00000BDC943404200D10131DB43524200D116
:1039E000013300F005F8DB43524200D1013300BD42
:1039F000002923D1002B18D1002A0CD0BC460D4F32
:103A000038667A6600210023FFE7FFE7FFE77A6F59
:103A1000386F67467047002801D00748010000B59D
:103A200005F066FE0022002300BD02000B0000200E
:103A300000217047000000D0FFFFFFFF002B00D0E7
:103A4000BFE0130C28D1002AE7D080B4114F3966AB
:103A50007A66FFE7FFE730B4040C7B6F396F1B0415
:103A600023433B667A66FFE7FFE7FFE7C04684B281
:103A70007B6F3D6F1B0423433B667A66FFE7FFE7DE
:103A8000C04600232C042D0C7A6F386F0019694151
:103A9000B0BC7047000000D0F0B594460025140E6D
:103AA00001D112020835140F01D112010435940F0F
:103AB00001D192000235D40F01D152000135D40B4F
:103AC0000134254F7C66254C3C660E0C93B2FFE713
:103AD000FFE7FFE73C6F6643360C7703BE46734350
:103AE000DF0B5B04C01AB941130C7343DB18C91A0E
:103AF000CE086643360CB64493B273431F0F1B01C6
:103B0000C01AB941130C73431F0B1B05C01AB941EE
:103B1000860D8F023E436643360C092D24DB520A84
:103B20007243801A7703460A6643360C16235B1BE2
:103B3000DE40DF40BF1964466643821B7046043591
:103B400006330100D940A840C01900D30131A24278
:103B500006D20023F0BD0000000000D0FFFFFFFFF1
:103B6000121B0130F3D3F1E709277F1BFE406446A7
:103B7000A2B27243801A00D20139220C7243130C94
:103B80001204821A99410B00704604351337010064
:103B9000F940A840801900D30131002B02D1A24284
:103BA0000AD2F0BD013000D30131121BFAD2013B21
:103BB000F8D1A24200D2F0BD013000D30131121B76
:103BC000F7E7F0B51C0C00D080E00CB400251C0A0F
:103BD00004D11B02160E3343120208351C0B04D10C
:103BE0001B01160F3343120104359C0B04D19B00BB
:103BF000960F334392000235DC0B02D192185B41E1
:103C000001351C00971864410134464F7C66464CD0
:103C10003C660E0CFFE7FFE7FFE7C0463C6F6643DC
:103C2000360C7703BE4697B27743C01B00D20139EA
:103C3000C01B00D201399FB27743C91BC91B170CA7
:103C400077437E04FF0B801BB941CE086643360CD8
:103C50000C2D33DBB644120B1F053A431B0B97B2F6
:103C60007743C01B00D201399FB27743C91B170CA1
:103C700077433E043F0C801BB941860D8F023E43C3
:103C8000664329277F1BFE400C3D7746AF40BF1996
:103C900030BCA2B2ABB272437343801A9941220C7A
:103CA0007243130C1204801A994102000B00013771
:103CB000001BA941F9D2781E0021F0BD0C277F1B03
:103CC000FE4077467F0BAF40FF19E0E700245D1C04
:103CD00007D0144F7D663966FFE7FFE7FFE7FFE790
:103CE0003C6F95B29EB265436643401BB141150CD3
:103CF0001E0C6543664336042F0C3E432D04401BC7
:103D0000B141994204D202000B0020000021F0BD15
:103D100001D19042F7D3801A994101349942F2D3EC
:103D2000F6E70000000000D0FFFFFFFF48404140E1
:103D3000484018B4134B5B68019308BD18B4114B8D
:103D40001B68019308BD94460F4A926F920805D2F2
:103D5000624618B40B4BDB68019308BD0A4AF0B504
:103D6000146E556E576F166F6246FFF7F2FF064AE4
:103D70001466556657671667F0BD18B4014B9B680B
:103D8000019308BD80180020000000D0FFB550400E
:103D90004240504059404B40594000E0FFB5154F5C
:103DA0004C00640D03D0BC4204D10C0314D8002095
:103DB000090D09055C00640D03D0BC4204D11C034D
:103DC0000AD800221B0D1B0501264B4009D44B408D
:103DD00003D58B4200D18242FFBD9942FCD1904273
:103DE000FFBD0B43DB1803431343F5D0C943491808
:103DF000FFBD0000FF07000000B5FFF7CFFF8041C7
:103E000000BDC04600B5FFF7C9FF01D9002000BDC5
:103E1000012000BD00B5FFF7B9FF01D9002000BDAA
:103E2000012000BD00B5FFF7B1FF804100BD0120BA
:103E300040054A00121804D85A00121801D8002070
:103E400070470120704700207047000000210028C3
:103E500005D17047C1174840401AFAD0C90713B5B9
:103E6000064B1B6898470CBC441CA2401005120B63
:103E70000349091B09051943114310BD801900208E
:103E80001F04000010B54C00620D8023D218DB0027
:103E9000D21A5B057E2A10DD9E3A13DACC1709038D
:103EA000490819435242D140640001341532202A96
:103EB00005DAD0400843604310BD002010BD08461D
:103EC000604310BDC80FC018013810BD18B4024BB4
:103ED0005B6A019308BD00008018002010B50148FE
:103EE000FEF7F2FB30A8001070B513231C78012CEC
:103EF00014D0012C14DC022C02DC1F4A1F4B9A64E4
:103F00001F48FCF72FFC1F4B186070BD99001E481E
:103F10001A4A885001331F2BF8D9EAE70023FAE741
:103F20001A48FCF727FC05001948FCF723FC023867
:103F300003789B007F2B19DD802229000F4800F0B9
:103F4000DBF8022CD7D1134B1A88B5231B029A42F7
:103F500009D1114B1A88114B9A4204D1104B1A887F
:103F6000104B9A42C7D00020FEF7AEFB0E4B0F4A13
:103F700032210F48FEF70EFBB53F001080180020DD
:103F80004C33000080190020DD3E00105344000037
:103F90005346000054380000D8380000494600005D
:103FA0009C3800005946000048A8001000A90010E5
:103FB0009CA8001007B56046002800D100BE01880B
:103FC0000A0A0230DF2AFAD1C9B2820804D3028871
:103FD00040880004104300E00068024A50500390FB
:103FE00007BD00008018002051434343C9188C4688
:103FF000110C83B24B4310B4040C614392B280B2F3
:10400000504362431C041B0C001910BC594113049B
:10401000120CC018514161447047000010B50148AE
:10402000FEF752FBA497001070B513231E781848B2
:10403000FCF7A0FB0500012E11D0012E09DDAB1EFF
:104040001B789B007F2B1DDD80222900114800F08A
:1040500053F81148FCF786FB104B186070BD5422D2
:1040600001000C4800F048F8002300E001331F2B4A
:10407000E3D89A00074C1259002AF7D19A00084851
:104080001051F3E7074B084A42210848FEF782FA2D
:1040900053460000841900204C3300008019002092
:1040A0001D40001014A90010ACA9001048A9001070
:1040B00010B5040004F0C4FD002804D00419034B1B
:1040C0009C4200D810BD0248FEF7FEFA0000042012
:1040D000C0A9001010B504F0BDFD10BD01480421B9
:1040E000014B1847B007002085070010014B1B68E3
:1040F00018470000B0070020014B5B68184700001C
:10410000B007002010B50300080011001B68984795
:1041100010BD0000F8B507000D001600437D002B10
:1041200002D0002400200CE003681100280098470A
:104130002DE03B7D10E0022115483B689847601C4C
:104140000134B44214DA002CF3DD2B19013B1B7847
:104150000D3B5A425341DBB22A5D0A2AF0D1002BB3
:10416000EED1A042E7DA211A28183B689847E2E727
:10417000B04203DA311A28183B689847002E06DD52
:10418000AD19013D2B780D3B5A4253413B75F8BDAB
:104190004CAA001070B505000368002B16D00C4B1C
:1041A0001C6805E0290004C92000FFF7B3FF24695B
:1041B000002C09D02368002BF9D0064B1B68002B7C
:1041C000F0D0A342F3D1EDE700232B6070BDC046D1
:1041D000581800206018002070B505000C000B680E
:1041E000802B05D021684B1C23606418257170BD9D
:1041F0000800FFF7CFFFF5E7F0B583B007000E002A
:104200000092019328E0A368002B04D0310038000D
:104210009847002827DC2469002C06D0134B1D6822
:10422000002DF0D0A542F6D1EDE70099019A104B90
:104230005B6A9A4209D80E48806A88420FD29A4235
:1042400001D0012302E0002300E00023002B08D16D
:1042500001200021FDF7D2FC064B1C68DCE701239E
:10426000F4E70120404203B0F0BDC04660180020D2
:10427000004005405818002010B5FDF79FFC0200D3
:104280000B1E0BDB0D48002112184B41002B0BDBE2
:10429000002B0DDB0A4805F043FA10BD094B0A4A12
:1042A0003F210A48FEF776F901225242084BEFE718
:1042B000044B054A3F210548FEF76CF940420F00C8
:1042C00018130020909C001034AA0010AC9C001021
:1042D000FFFFFF7F10B5024805F002FA10BDC0468F
:1042E00018130020F0B5CE46474680B583B00600CF
:1042F0000D0090461C00FFF7BFFF81466B1C05D0E8
:10430000002C08D0194F1A4B1C6807E0300005F04C
:10431000A7F80500F4E7174FF5E72469002C17D03C
:104320002368002BF9D0144B1B68002B01D0A3424B
:10433000F3D12A0031002000B8474346002BECD0CF
:104340006B46D91D0A230B7001222000B847E4E711
:104350004B46002B07D16B1E9D41E8B203B0C0BC99
:10436000B946B046F0BDFFF7B5FFF4E705410010D0
:1043700058180020154100106018002010B50300E7
:1043800008001100002B05D1044B1A685B68FFF789
:1043900033FF10BD01204042FBE7C046A0A1001042
:1043A00010B5030008001400013B012B06D80023C0
:1043B00000222100FFF796FF200010BD012040429F
:1043C000FBE7012040427047012040427047000057
:1043D000094A01E010331A001368002B08D0834209
:1043E000F8D1002907D1036913600023036102E0BB
:1043F000002900D0106070475818002010B5064BF7
:104400001C6801E098472469002C03D06368002BE6
:10441000F8D1F8E710BDC0465818002070B5050067
:1044200005F01EF804000023012201002800FFF718
:1044300059FFFFF7E3FF200070BD000070B5A2B088
:1044400004000E00FFF718FF05000023019333005E
:10445000220001A90848FFF7F1F9040001A8FFF7BD
:1044600099FEFFF7CBFF002D02D1200022B070BDD6
:10447000FFF730FFF9E7C046D94100100FB400B58F
:1044800083B004A901C90191FFF7D8FF03B008BCAC
:1044900004B0184710B500F0F9F8012010BD000075
:1044A000F0B583B005000E0000240FE06B46D91D67
:1044B0000D230B700020002816D193699B06FCD4B5
:1044C0000B78136001300131F5E70134B44219DA99
:1044D0000D4B1A682F5D0D4BD31859424B415B00B1
:1044E0000B495B5EBB42E1D06B46D91D0F700020CB
:1044F0000028EAD193699B06FCD40B781360013045
:104500000131F5E703B0F0BD9C1A00200080FCBF2C
:10451000981A0020F0B583B006000F00002504E0D3
:104520006B4607331B782B702500BD4215DA174BFD
:104530001A6893691024210019401C420DD16C1C8B
:1045400075196B46D81D0029EAD19369DB06FCD4A6
:104550001368037001310130F5E70D4B1B68002B28
:104560000CD00A4B1A685023936311003431536BFB
:1045700038221A4080235B010B431A60002D02D0C1
:10458000280003B0F0BD033DFAE7C0469C1A0020A6
:10459000E817002010B5064B1B68002B06D0054A13
:1045A000126800219163044A1068984710BDC04604
:1045B000E81700209C1A0020EC17002070B50400BA
:1045C0000E001C4B1B681C4A981842425041143084
:1045D0000500002C03D0194A1268002A06D0002CCE
:1045E00019D0164B1C60164B1E6070BD1549FCF7A8
:1045F000C1FA01212800FCF7ADFA0E4B1A685023CE
:10460000936311003431536B38221A4080235B01CD
:104610000B431A60E5E7094A1268002AE1D000223C
:104620009A6300212800FCF795FA06492800FCF758
:10463000E5FBD6E79C1A00200080FCBFE8170020AD
:10464000EC1700209545001070B50D001C000D4BB7
:104650001860002A0BDA002C0EDA0A4B18682900C1
:10466000FDF736FF01210848FFF7B2FE70BD0221B9
:104670001000FCF7ADF9EEE702212000FCF7A8F9E5
:10468000EBE7C0469C1A0020C007002010B5064B7F
:104690001B78064B1B78E1210123002249020448C4
:1046A000FFF7D2FF10BDC0468CBD001090BD0010BA
:1046B00000400340F0B5DE4657464E464546E0B55D
:1046C00083B0824688460620FCF77CF953465B6837
:1046D000022213400193042353449B46C0239B01B1
:1046E00059460B431A6002248146474600E02C00DD
:1046F000FE2C1FD84B4600930026A51C28023A002A
:1047000000230021FFF770FC002903D1B142EED154
:104710004845ECD94E46B84680256D00012D0ED98E
:104720006F1E210079433000FFF7C8F8404506D8D6
:104730003D00F3E74E46B84680256D00EEE7534650
:104740001C616B1E1B02524612685340FF2212026C
:1047500013408020400152461043036080239B0198
:104760005A461343019A1A60290061433000FFF74B
:10477000A5F803B0F0BCBB46B246A946A046F0BDC2
:1047800070B50400174B984228D080229202164B35
:104790001A60164B1A60164B9B6810009843FAD1AA
:1047A0002000FFF787FF656802210D40231DC0220E
:1047B00092011A431160266807227240CF261640E4
:1047C00080225201224316608022920113431D6011
:1047D0002434144303222260196070BD80225202E7
:1047E000D5E7C04600C0034000E0004000F00040B4
:1047F00000C00040F0B5DE4657464E464546E0B59F
:1048000085B0060010001C0002930EAB1A780392CC
:104810000F9D109F33680022DA6633685960336851
:104820000132DA66A246002398469B4600242BE01C
:104830003279002A31D001222FE00399002901D0DA
:1048400000212EE001212CE03800A847030004439A
:10485000E4B2002B06D13268526BD20602D4002D8E
:10486000F2D1F6E7002B09D13268802151588B46EE
:1048700000291FD1002C2FD1C1451ED0002C33D1CF
:1048800001229446E0440198D0452DDA029A013A7B
:1048900091464246002ACBD000229202C145CCD09C
:1048A000002149020A43411C01910078316802430A
:1048B0000A61D4E7526D01240EE0039A002ADDD18B
:1048C0000AE03800A84703000443E4B2002B06D1F5
:1048D0003268526B920502D4002DF2D1F6E7002B1C
:1048E000CCD13268126EC9E7002C09D0002B15D14B
:1048F0005B46002B16D0DB0718D45B461B0709D597
:10490000039B3371404605B0F0BCBB46B246A94696
:10491000A046F0BD02235B429846F1E701235B42CB
:104920009846EDE702235B429846E9E702235B42A3
:104930009846E5E7F0B5D6464F464646C0B5050071
:104940000C000520FCF73EF80600600880192100E5
:10495000FEF7B4FF0700430099468144052148460D
:10496000FEF7ACFF80463B1A9A46284B9C4224D85F
:10497000700080192649FEF7A1FF441C4346023B04
:10498000A34221D32B680022DA6629680A6804232F
:10499000534006221A4080235B010B431A602B68A8
:1049A0005246DA612B6842461A624B464F2B11D9A8
:1049B00050214846FEF782FF0DE07000801915492E
:1049C000FEF77CFF441CD9E7134B144A5D211448C1
:1049D000FDF7E0FD0120A0232A68D0502A681100CD
:1049E0007C31D06F44402404240C80235B010B43B2
:1049F0001C602B680122DA6639003000FEF75EFF8A
:104A0000E0BCBA46B146A846F0BDC0463F420F00E2
:104A10008096980040787D0190AA00100CAB0010A1
:104A2000B0AA001010B5114B98421CD01022104BA8
:104A30001A60104B1A60104B9B6814009C43231E95
:104A4000F9D104710268D46602686624FF341460E8
:104A50000268D36302689363883303220468E250D8
:104A6000FFF768FF10BD0822E1E7C046D807002025
:104A700000E0004000F0004000C0004030B585B0CC
:104A800008AC25780024029401940095FFF7B2FE4B
:104A900005B030BD10B50520FBF794FF014B186041
:104AA00010BDC0469416002010B5FFF7F3FF10BDEF
:104AB00010B5FFF7FDFA10BD10B5FFF70BFB10BDE9
:104AC0007F2801D880B2704780235B02984215D2BC
:104AD000B623FF3399420FD00020F4E701339BB295
:104AE0007F2B04D85A0006498A5A8242F6D1803375
:104AF0001800FF231840E6E70023F1E70020E2E773
:104B0000F4AD00107F2804D9B623FF33994201D0B9
:104B100000207047FF2806D8044B9C4660444000A4
:104B2000034B185AF5E70020F3E7C04680FFFF7FEC
:104B3000F4AD0010F0B580235B02984227D286B214
:104B400080235B019E4201D2204B02E0204B00E01B
:104B50002B001A88002A19D0964217D31D1D598898
:104B60000C0AFF230B400104090C9F18B94204DB17
:104B7000002CEDD15B00EB18EBE7082C06D8A40065
:104B8000144B1B599F468A1A5200AE5A3000F0BD92
:104B9000B21A01231A40B61AB6B2F7E7103EB6B2FF
:104BA000F4E7203EB6B2F1E7303EB6B2EEE71A3E89
:104BB000B6B2EBE70836B6B2E8E7503EB6B2E5E784
:104BC000054B9C466644B6B2E0E7C04644AB0010D5
:104BD00038AD001020AB0010A0E3FFFF43781B02AC
:104BE0000078184370470300C07800029A78104399
:104BF00000025A78104300021B7818437047C179AD
:104C00000902837919430902437919430902037997
:104C10000B43090E1B02C2781A431B0E09021943EB
:104C2000120283781343120E090211431B024278C9
:104C30001A431B0E090219431202007810437047F1
:104C40000170090A4170704701700B0A43700B0C28
:104C50008370090EC17070470020704700207047B4
:104C600070B5050003685C1C1B7818005AB2002A56
:104C700001DB2C6070BD1F22190091430A00C0297E
:104C80000FD00F22190091430A00E02935D00722E6
:104C9000190091430A00F02933D107201840ED3A5A
:104CA00002E01F201840BF3A237801343F211E0044
:104CB0008E43802E28D181013F2018400843013ABD
:104CC000002AF1D17F2822D980221201144BC31867
:104CD00093421FD388235B0398421ED280235B023A
:104CE0009842C6D30F4BC3189B010F4A134080054F
:104CF000800D03430D481843BBE70F201840DE3AF0
:104D0000D2E701204042B5E701204042B2E701204E
:104D10004042AFE701204042ACE701204042A9E712
:104D20000028FFFF0000FFFF0000FF0300DC00D8A9
:104D300010B57F2804D8002A69D00870012067E0E8
:104D400080231B01984211D2012A01D800205FE084
:104D500082091F231A405F3B13430B703F2303401C
:104D60008020404218434870022051E080235B02BB
:104D700098421BD2022A4CD980221201294BC31817
:104D8000934201D2002043E0020B0F231A402F3B35
:104D900013430B7083093F24234080225242134364
:104DA0004B70204002438A70032031E0032A32D93D
:104DB000030C1B04A0229205944663449B09000443
:104DC000000C194A9446604480225203934224D234
:104DD0008022D200904222D2184380235B029C465C
:104DE0006044820C07231A40173B13430B70040BDB
:104DF0003F231C408022524214434C7084091C40C3
:104E000014438C7018400243CA70042000E0100064
:104E100010BD0020FCE70020FAE70020F8E70020A2
:104E2000F6E7C0460028FFFF0024FFFF30B504006E
:104E3000002000E001300F2813D80301244A9B58BA
:104E400022689342F6D10201214B9B185B68A2684D
:104E50009342EFD102011E4B9B189B68226B934239
:104E6000E8D110282AD0002905DD0201184B9B1833
:104E7000DB68002B29D1002922D10201144B9B1899
:104E8000DA6801320101124B5B18DA60013030BD83
:104E900001300F2804D803010D4A9B58002BF7D18D
:104EA000102810D00A4B02012568D5509B18A26823
:104EB0005A60226B9A600022DA60D4E70020E8E7AB
:104EC00080225200DEE70020E1E70020DFE7C04655
:104ED0009415002010B5002300E001330F2B08D8F3
:104EE0001A01044952588242F7D11A010024545041
:104EF000F3E710BD9415002070B50300881EDA6A30
:104F0000023A824209D91C6D5D6D5A890023002145
:104F1000FFF76AF80019694170BD00200021FBE726
:104F200070B506000C0008001A30FFF757FE0500A8
:104F30003378032B00D070BD20001430FFF74EFEF5
:104F400000042843F7E70000F0B5C64600B58046E8
:104F50000E0008001A30FFF741FE00282CD13578EA
:104F600040239D436B1E5D00ED18AD00ED18012739
:104F7000002403E0174A904224D101340C2C0ED8AF
:104F8000154B185D3018FFF729FE002FF2D0FF2DCA
:104F900016D86B004246D05207000135EDE7337852
:104FA0005B0611D5002F11D0FF2D11D86D0045449F
:104FB00000232B80012000E0002080BCB846F0BD1B
:104FC0000020FAE70020F8E70120F6E70120F4E7E7
:104FD0000020F2E7FFFF0000DCAF001010B5010079
:104FE0000B2400204308C0010343DBB208780131E1
:104FF0001818C0B2013C002CF4D110BD10B504004B
:105000004278013252010020002301E001330133D4
:10501000934209D2022BF9D0C1034008401880B254
:10502000E15C401880B2F2E710BD70B505000C00DD
:1050300000693430FFF7D7FDA06028693830FFF7EA
:10504000DEFD206161612A692123D25C1F3B134090
:10505000E3710023E36170BD10B501000068002812
:1050600023D00200137801321F2B01D93A2BF9D13A
:105070003A2B02D00E4B187810BD03781C00303C40
:10508000E4B2092C0ED80230904202D001204042F6
:10509000F2E7303B1800012B02DD01204042EBE734
:1050A0000A60E9E701204042E6E701204042E3E7E9
:1050B000A41A0020012304E0002207E040085B005E
:1050C000DBB2002B09D01942F6D001225040C207B2
:1050D000F4D5420801485040F1E770472083B8ED0D
:1050E00070B504000D00002818D00368002B17D0FD
:1050F0001A78002A17D08188DA88914203D00920D3
:1051000000242C6070BD587803F0F8F903000122E8
:10511000100018401A4209D12468F2E70920F0E78C
:105120001C000920EDE709200024EAE709200024FB
:10513000E7E70000F8B505000C221C4904F056F81A
:10514000061E2FD128000C30FFF74DFD070002008E
:105150005C3AD2235B009A4225D8012040420024C9
:1051600003E00021FFF7A6FF0134BC4205D2230073
:10517000103B032BF5D9295DF4E7C4432800103018
:10518000FFF731FD84420ED128005430FFF72BFD8C
:10519000802808D128005030FFF725FD802802D84C
:1051A000012600E000263000F8BDC04620AF001008
:1051B000F0B5C64600B582B005000479002C04D1D4
:1051C000200002B080BCB846F0BD682398468044F9
:1051D0004078673B00932A6E6B6E414603F0C5F939
:1051E000041E1BD100232B712E6E6F6E3000390010
:1051F0002A6C6B6C801A99412A6B00238B42DFD199
:105200008242DDD9E9780229DAD192197B416878A6
:1052100001390091414603F0A8F9D1E70124CFE715
:10522000F0B583B0040015001F00436E026EAA4261
:1052300005D1BB4203D10026300003B0F0BD2000F1
:10524000FFF7B6FF061EF7D1210068316078012311
:1052500000932A003B0003F06FF9002803D00136C9
:1052600001256D422F0025666766E5E770B50400ED
:105270000021017101204042C117206661662000B3
:10528000FFF7CEFF002867D1344BE018FFF7A6FCEC
:105290000500334B98420CD06823E35CEB2B12D013
:1052A000E92B10D0E82B0ED02D4B9D4252D003207D
:1052B00070BD200068300B222A4903F097FF0028B8
:1052C000EAD10120F4E7264B9D4239D0200073300B
:1052D000FFF784FC7523E15C431E0342E4D1802385
:1052E0009B009842E0D3DFD80029DDD04B1E0B4253
:1052F000DAD120007630FFF771FC0028D4D0782373
:10530000E35C013B012BCFD820007930FFF766FC2E
:105310000028C9D020007B30FFF760FC7F2807D829
:1053200020008830FFF75FFC80235B029842BBD3EC
:1053300020007E30FFF752FC0028B5D00020B7E7F0
:10534000082209492000BA3003F050FF0028BDD1DF
:105350000020ADE70220ABE70420A9E766020000C9
:1053600055AA0000F4AE001000AF0010F0B5DE4604
:1053700057464E464546E0B589B005000C00002270
:105380000023FFF773FF022804D000D984E0002C2B
:1053900000D181E0464BEB5CEE2B0FD00026032EB4
:1053A00061D82B0068333001C730FF301818FFF781
:1053B0001AFCB30004AAD0500136F0E70122002302
:1053C0002800FFF72DFF002865D168239A46AA44DC
:1053D0005046FFF7AFFE002865D02800B830FFF731
:1053E00002FC83462800B030FFF709FC00900191D1
:1053F00000230393A8461D00A14600E001355D454A
:105400002FD2EC01660A0027009A019B92197B417A
:105410004046FFF705FF002847D18130FF300440A8
:10542000534618191022234903F0E0FE0028E5D165
:10543000039B01330393200020305044FFF7DFFB30
:1054400002000B004046FFF711FF4B46002B01D135
:10545000012821D94B46002BD0D0039B9945CDD1B3
:105460001AE0032018E0002C01D0661E0CE0260094
:105470000AE000232800FFF7F9FE002C0CD10128D8
:105480000AD90136032E07D8B30004AA9A58002A75
:10549000EFD10320F1E7042009B0F0BCBB46B246CF
:1054A000A946A046F0BD0320F6E70420F4E7C04675
:1054B0002A020000CCAF0010F0B5DE4657464E463B
:1054C0004546E0B589B00D00160000230B60FFF7DC
:1054D000C3FD002800DA42E28000CA4BC458002C09
:1054E00000D145E22C6001239E432378002B0FD08E
:1054F000607803F003F801231D000540034207D143
:10550000002E00D12CE2430700D429E20A2527E22D
:1055100000232370607802F0FAFF01231D0005408C
:10552000034200D026E2002E02D0430700D523E23A
:1055300000212000FFF71AFF042800D11EE20128F5
:1055400000D91DE2226E636E00920193012800D102
:10555000EEE020007330FFF741FB80239B00984270
:1055600000D025E220007E30FFF738FB061E04D174
:1055700020008C30FFF737FB060026637823E75CBA
:10558000E7707B1EDBB2012B00D913E27743029751
:105590007523E75C6781002F00D10DE27B1E3B4243
:1055A00000D00BE220007930FFF718FB80460300A3
:1055B000049020811B0700D002E220007B30FFF71F
:1055C0000DFB8146002804D120008830FFF70BFB3B
:1055D000814620007630FFF701FB8346002800D18A
:1055E000F0E1029A5A4443461B099BB29046984404
:1055F000C14500D2E8E14B4642469B1A9946390024
:105600001800FEF75BF9B94500D2DFE17E4B984206
:1056100000D8F3E000239A467C4B984201D802233D
:105620009A467B4B984200D8F6E05346002B00D0B8
:10563000F4E00D2594E101333F2B04D8E2186832E1
:105640001278002AF7D03F2B00D89BE12000D03001
:10565000FFF7C4FA80235B00984200D094E12C3B12
:10566000E35C092B00D091E12000B030FFF7C7FACE
:10567000009E019F36184F412000BC30FFF7B3FA5F
:105680002063D623E35C9946E370012B00D07FE1D1
:10569000D433E25CD43B93409BB298466381002BA9
:1056A00000D177E12000C430FFF79DFA8246594BC4
:1056B000984200D970E103000233E362009A019B33
:1056C000A263E3632000C030FFF78DFA02000023DD
:1056D00000980199801859410A0001000291039233
:1056E000216562652300B8331800FFF77CFA0200D9
:1056F00000230098019912184B41226463644046CC
:1057000051464843020000230298039912184B4166
:10571000BB4211D80ED02000C830FFF764FAA06455
:105720000023E36400270026B0462600AA460DE0C9
:105730000B2381E7B242EED90D2511E1F31968334D
:105740001B78812B1CD02037FF05FF0D002FF5D1D2
:105750007389434500D821E1B16C3000FFF7CCFBE1
:105760004446002502000B0012196B413000FFF780
:1057700057FD002800D013E101239C46E044DDE7FB
:1057800034006836380014303018FFF72CFA070060
:10579000012800D806E1E36A834200D804E1608969
:1057A000B91E41430A000023206D616D12184B4160
:1057B000A265E365B0462600FC090025326C736CD7
:1057C00012196B413000FFF72BFD002800D0EDE0EF
:1057D0007F30384080004044FFF705FA431C04D076
:1057E0000137B842E8D00D25BAE034005546012310
:1057F0005B42B361736105339A4652E003239A46D4
:105800000AE7C0468C150020F5FFFF0FF5FF0000EA
:10581000F50F0000FDFFFF7F01239A46831C994688
:10582000E362009A019BA263E3635846002180185B
:10583000594102000B0006920793226463644246BA
:1058400000230098019912184B4122656365534665
:10585000032B34D0049B002B00D1BDE0029A00231F
:105860000698079912184B41A264E3645346022B31
:105870003AD04B465B004B445B08012249460A4044
:105880009B18574A944663445B0AB34200D9A5E08B
:1058900001235B42A3616361813363715346032B30
:1058A00025D0534623704F4A138801339BB213808F
:1058B000E3800023E3612000FFF70CFB50E02000B1
:1058C0009230FFF78BF9002800D081E0049B002B79
:1058D00000D07FE020009430FFF785F9A06400231A
:1058E000E3644B469B00CCE74B465B00C9E72000D6
:1058F0009830FFF773F90128D3D1012200230098D3
:1059000001998018594102000B002000FFF788FC24
:105910000028C6D100236371334BE018FFF75EF90E
:10592000324B9842BDD120006830FFF75CF9304B14
:105930009842B6D193239B00E018FFF754F92D4B02
:105940009842AED194239B00E018FFF74CF9A06178
:1059500095239B00E018FFF746F96061A1E70B254E
:10596000280009B0F0BCBB46B246A946A046F0BD2F
:105970000C25F5E70325F3E70A25F1E70125EFE715
:105980000D25EDE70D25EBE70D25E9E70D25E7E70B
:105990000D25E5E70D25E3E70D25E1E70D25DFE71B
:1059A0004D46DDE70D25DBE70D25D9E74D46D7E769
:1059B0000D25D5E70D25D3E70D25D1E70D25CFE73B
:1059C0000D25CDE70D25CBE70D25C9E70D25C7E74B
:1059D0000D25C5E70D25C3E70D25C1E70D25BFE75B
:1059E000FF010000A01A00206602000055AA000076
:1059F0005252614172724161F0B5DE4600B584B029
:105A0000070093468E1EC36A023BB34200D80026AD
:105A1000009634000025230B029300230393BA6DF4
:105A2000FB6D0298039912184B413800FFF7F8FB01
:105A3000019000282BD1E308DB05D80D0722224076
:105A400001239340DBB20BE000940025A64221D055
:105A5000002B05D1013080239B009842DBD201232B
:105A60003A18683212781A405B00DBB20134F96AE6
:105A70000239A14203D8019B002480208000002A23
:105A8000E2D101355D45E1D10098023003E001200B
:105A9000404200E0002004B080BCBB46F0BDF0B541
:105AA000C64600B582B00600170098468B1E180B3C
:105AB0000021B46DF56D00196941DD08ED05ED0DAE
:105AC0000722134001249C40E4B201220023121853
:105AD0004B410092019302000B003000FFF7A0FB46
